:020000040000FA
:10000000482A0020250200006502000009020000C5
:10001000690200006B0200006D0200000000000099
:100020000000000000000000000000006F0200005F
:100030007102000000000000730200007502000061
:1000400077020000770200007702000077020000CC
:1000500077020000770200007702000077020000BC
:1000600077020000770200007702000077020000AC
:10007000770200007702000077020000770200009C
:10008000770200007702000077020000770200008C
:10009000770200007702000077020000770200007C
:1000A000770200007702000077020000770200006C
:1000B000770200007702000077020000770200005C
:1000C000770200005D160000770200007702000052
:1000D0008916000077020000770200007702000016
:1000E000770200007702000077020000770200002C
:1000F000770200007702000077020000770200001C
:10010000770200007702000077020000770200000B
:1001100077020000770200007702000077020000FB
:1001200077020000770200007702000077020000EB
:1001300077020000770200007702000077020000DB
:1001400077020000770200007702000077020000CB
:1001500077020000770200007702000077020000BB
:1001600077020000770200007702000077020000AB
:10017000770200007702000077020000770200009B
:10018000770200007702000077020000770200008B
:10019000770200007702000077020000770200007B
:1001A000770200007702000077020000770200006B
:1001B000770200007702000077020000770200005B
:1001C000770200007702000077020000770200004B
:1001D000770200007702000077020000770200003B
:1001E000770200007702000077020000770200002B
:1001F00077020000DFF80CD000F08CF800480047D0
:10020000A1240000482A002004207146084202D0A0
:10021000EFF3098001E0EFF308807146004A1047D0
:10022000A908000014484FF0590101604FF0160171
:1002300001604FF0880101601048416841F480413D
:1002400041600F48416841F002014160416841F05E
:10025000040141600B48804707484FF000010160EE
:1002600009480047FEE7FEE7FEE7FEE7FEE7FEE798
:10027000FEE7FEE7FEE7FEE7000100400002004067
:100280000070004081140000F501000040EA010305
:100290009B0703D009E008C9121F08C0042AFAD23C
:1002A00003E011F8013B00F8013B521EF9D2704700
:1002B0002DE9F05F0546002092469B46884606469B
:1002C000814640241BE0284641464746224600F02E
:1002D00042F853465A46C01A914110D31146184667
:1002E000224600F029F82D1A67EB01084F462246F6
:1002F0000120002100F020F817EB00094E41201EDC
:10030000A4F10104DFDC484631462A464346BDE8F5
:10031000F09F0000064C074D06E0E06840F0010346
:1003200094E8070098471034AC42F6D3FFF766FF15
:10033000D0250000F0250000202A04DB203A00FA36
:1003400002F1002070479140C2F1200320FA03F32C
:10035000194390407047202A04DB203A21FA02F02A
:100360000021704721FA02F3D040C2F120029140EF
:100370000843194670474FF08040D0F8401241F4CE
:100380008031C0F84012704700F01F0201219140F7
:10039000034A800F02EB800002680A430260704744
:1003A000040200402DE9F84F0D460446FFF7E3FF35
:1003B0004FF08040484ED0F80012C4B141F0040123
:1003C000C0F80012102000F011FA4FF40020009045
:1003D000424843492844B34688426DD84FF000094B
:1003E0004FF0FF324F464E46AE46012015E041F039
:1003F0000101C0F80012012000F0F8F90020E6E742
:10040000F2B3032839D0042802D0022805D102E033
:100410004FEA8E0501E04FEA4E0502236AB3BBFBAB
:10042000F3F1304CDFF8BCC00C44CCF1000C644557
:1004300020D80224C1F35D0ADFF8A0C00AFB04F152
:1004400001EB0C08DFF8A0C0E0450ED8B1EB950F2A
:1004500002D9A1EB950101E0C1EB9501914204D2D3
:100460000A0099462746064604D040F20121641C42
:100470008C42E1D95B1C202BD0D9401C042800E021
:1004800000E0BDD91948009900EB8630184A0843AE
:1004900002EB49210843B91E08434FF08041C1F8DF
:1004A0004002042000F0A2F906FB09F6BBFBF6F0BF
:1004B00078434000BDE8F88F5CB10E494FF08040B2
:1004C000C0F84012042000F091F9BDE8F84F00F0A8
:1004D000A7B844F21E21F1E7001BB700800F05FD0D
:1004E0008074D21A00F7C2FFC068780400C0FFFF12
:1004F00000FEFFFF1E4208004FF08041D1F80022AD
:100500000243C1F80022704710B500F095FF014882
:10051000006810BD0000002010B500F08DFF0148FC
:10052000006810BD000000204FF08040D0F80002AD
:10053000C00700D000487047001BB7004FF0804054
:10054000D0F80002800702D54FF400407047002029
:100550007047000010B500F06FFF4FF08041D1F8F8
:1005600034024207134817D0D1F8342202F00702B0
:10057000012A13D0D1F8342202F00702022A10D047
:10058000D1F8342202F00702032A0DD0D1F8341238
:1005900001F0070104290AD0006810BD0068400876
:1005A00010BD0068800810BD0068C00810BD00685C
:1005B000000910BD0000002010B500F03DFF4FF015
:1005C0008041D1F8340210F0700F144817D0D1F8E0
:1005D0003422C2F30212012A13D0D1F83422C2F31A
:1005E0000212022A10D0D1F83422C2F30212032AD6
:1005F0000DD0D1F83412C1F3021104290AD00068D9
:1006000010BD0068400810BD0068800810BD00687B
:10061000C00810BD0068000910BD000000000020E7
:1006200008B510A10020096800914FF08041D1F871
:10063000401211F4A02F13D10B488A0310D4C1F338
:100640000800C1F38132094B801C1DF80220C1F360
:1006500044215843491C11FB02F1B0FBF1F0C000EA
:1006600008BD000001020204001BB700C0C62D0037
:1006700070B54FF080440646D4F8500200F01005E3
:100680001B48864200D90646D4F8000240F0040018
:10069000C4F80002102004F5007400F0A7F82069E7
:1006A00040F007002061206A20F00F0020622068DF
:1006B000A4F50074C007314604D00020FFF772FE95
:1006C000064608E04FF40020FFF76CFE0646D4F81B
:1006D000500200F010050021022000F00BF82DB9A7
:1006E000D4F8000220F00400C4F80002304670BDC7
:1006F00000B0710B2DE9F0414FF080440746D4F86B
:1007000050020E4600F01005D4F8000240F004003C
:10071000C4F80002102004F5007400F067F82069A6
:1007200040F007002061206A20F00F003043206273
:10073000206920F0070038432061A4F5007400F020
:100740007BFE002D05D1D4F8000220F00400C4F88F
:100750000002BDE8F0810000F0B510F47F3F2ED01C
:100760004FF08043D3F8F431DFF878C0DFB21D4B8F
:10077000C0F381440C3B6FEA90450CF1040603EB97
:100780008403012F02D0022C0DD001E0022C02D0F4
:10079000AC070AD00AE0C343DC06134B06D000F0D6
:1007A0001F041D2C02D0634600E033461C68C0F3D2
:1007B0008725C0F34416B540AC4314431C60420E79
:1007C00052070ED0084BC0F30172183B03EB8202B4
:1007D0001368C0F34264C0F304508440A3430B4346
:1007E0001360F0BD2C0200402802004030B5012407
:1007F00005460849A20705E0081EA1F1010101DC38
:10080000002404E0D2F8503235EA0300F4D1204647
:1008100030BD000080F5200010B50C4C01221146BF
:10082000204600F015F801220221204600F010F8C1
:1008300001220421204600F00BF8E11303480022B6
:10084000BDE81040403800F003B80000C04100404F
:10085000F0B500230127032507FA03F48C4309D1DF
:1008600006685C0005FA04FC26EA0C0602FA04F4A9
:10087000264306605B1C102BEED3F0BDF0B50023C1
:100880000127032507FA03F40C4209D0866A5C00AD
:1008900005FA04FC26EA0C0602FA04F426438662F2
:1008A0005B1C102BEED3F0BD044603A001F016FB39
:1008B000204601F009FEFEE7496E2048617264207F
:1008C0004661756C742048616E646C65720A000044
:1008D00000F01F02012191404009800000F1E0205A
:1008E000C0F800117047000070B50022094D0126C4
:1008F000134606FA02F40C4203D000EB0214236004
:10090000AB54521C102AF4D3D0F800240A43C0F888
:10091000002470BD3800002000EB0110016821F0B8
:100920007401016001681A4311430160704730B5DA
:1009300000EB0110DDE9034542608460016821F4A9
:100940007061016001682B431943016030BD0000F4
:1009500010B500EB011001684CF6FF7421400160F6
:100960000168034C04EB034313431943016010BDBA
:100970000000FFFF30B54D4D039C10296A547DD215
:10098000DFE801F008101720272F363F464E555E4E
:10099000656D7489D0F8805425F07F051543C0F843
:1009A00080546BE0D0F8805425F4FE4545EA0222DD
:1009B00005E0D0F8805425F4FE0545EA0242C0F86F
:1009C00080245BE0D0F8805425F0FE4545EA0262C1
:1009D000F5E7D0F8845425F07F051543C0F884541A
:1009E0004CE0D0F8845425F4FE4545EA022205E0A7
:1009F000D0F8845425F4FE0545EA0242C0F8842468
:100A00003CE0D0F8845425F0FE4545EA0262F5E763
:100A1000D0F8885425F07F051543C0F888542DE0A0
:100A2000D0F8885425F4FE4545EA022205E0D0F8C6
:100A3000885425F4FE0545EA0242C0F888241DE0EA
:100A4000D0F8885425F0FE4545EA0262F5E7D0F873
:100A50008C5425F07F051543C0F88C540EE0D0F877
:100A60008C5425F4FE4545EA022205E0D0F88C546A
:100A700025F4FE0545EA0242C0F88C2400EB011083
:100A8000016821F003016BB1891C01600849096804
:100A9000611AC16030BDD0F88C5425F0FE4545EA9E
:100AA0000262E9E7491C016030BD00003800002007
:100AB0003C840040016941F48071016170478168A4
:100AC00021F009018160704710B50246002053698A
:100AD000CC0703F0010301D003B1012053698C0757
:100AE00003F4807302D50BB140F0020053694C0748
:100AF00003F4007302D50BB140F0040053690C07F6
:100B000003F4803302D50BB140F008005369CC06E2
:100B100003F4003302D50BB140F0100053698C068A
:100B200003F4000302D50BB140F0200053694C06DA
:100B300003F4004302D50BB140F0400052690906AE
:100B400002F0100203D5002A01D040F0800010BD51
:100B50002DE9F0470446089D006E1F4692468946DF
:100B600020F001002066202B00D10027FFF7D4FCE5
:100B7000714ADFF8C0C1714B510406464FF00008BE
:100B8000B9F1000F13D0C4F8088049EA072040EA01
:100B90000A0040F001002060C4F8048064457DD163
:100BA000D1F8180220F0300040F02000B2E0C4F884
:100BB000088048EA072040EA0A0040F0010020606F
:100BC000B54220D3644506D1D1F8180220F0300098
:100BD00040F0200015E0944206D1D1F8180220F030
:100BE000C00040F080000CE0D1F818029C4204D113
:100BF00020F4406040F4006003E020F4405040F4F2
:100C00000050C1F818024E4864450FD1D1F818229F
:100C100012F0300F48D0D1F81822C2F30112012A85
:100C20003DD0D1F81812C1F3011122E094420FD146
:100C3000D1F8182212F0C00F36D0D1F81822C2F322
:100C40008112012A2BD0D1F81812C1F3811122E0B0
:100C5000D1F818229C4211D112F4406F24D0D1F85F
:100C60001822C2F38122012A19D0D1F81812C1F337
:100C70008121022918D1FFF79FFC15E012F4405F93
:100C800012D0D1F81822C2F30132012A07D0D1F8CC
:100C90001812C1F30131022904D005E029E0FFF761
:100CA000BFFC01E0FFF756FCB54201D2854203D3F9
:100CB000C4F80480BDE8F08740F2FF125DB100EB9C
:100CC00080014900B1FBF5F10A23491DB1FBF3F1A5
:100CD000491EFF2904D9616811436160000AE9E7F0
:100CE00062686FF308020A436260491CB0FBF1F0CE
:100CF000E0E7944206D1D1F8180220F0C00040F09D
:100D0000800011E0D1F818029C4209D120F4406023
:100D100040F40060C1F81802BDE8F047FFF74CBC92
:100D200020F4405040F40050C1F81802BDE8F047EC
:100D3000FFF710BC001006400020064000300640BF
:100D4000001BB7002DE9F0415920840716218822A5
:100D5000C4F80001C4F80011C4F80021D4F800312F
:100D6000002BF5D04FF04025D5F8400120F0F000E1
:100D7000C5F840010D20FFF7BFFB1920FFF736FD36
:100D80004848FFF775FC1120C4F83402464E30463F
:100D9000FFF7FAFA00224FF040713046FFF7DCFC13
:100DA000E06B20F47F00E063E06B40F4CC00E06394
:100DB0003E4E3046FFF7E8FA00224FF04041304601
:100DC000FFF7CAFC3A4E002230213046FFF7C4FC40
:100DD0003046FFF7D9FA374E00224FF440613046D3
:100DE000FFF7BAFC3046FFF7CFFA0120FFF7CCFA45
:100DF000314E3046FFF7C8FA4FF4E067002239461B
:100E00003046FFF7A9FC2D4E3046FFF7BDFA002211
:100E100039013046FFF7A0FC2948FFF7B5FA4FF03B
:100E2000AC463046FFF7B0FA002203213046FFF708
:100E300093FC00F001FB206B20F470002063206B1A
:100E400040F400002063206B20F47F202063206B9F
:100E500040F46E202063206B6FF30B002063206B47
:100E600040F2444630432063686A40F007006862FD
:100E7000022206212846FFF701FD606B6FF30B008D
:100E80006063606B30436063686A40F4E06068628E
:100E9000022239462846FFF7F1FC0020C4F8000181
:100EA000BDE8F08100B0710B103D8057953DEC77A7
:100EB0000D0040660F00A0660200805E0300C05E69
:100EC000160000800121044A814002EB1060026894
:100ED0000A438A43026070470800004006498A6955
:100EE0001202FCD40A2804D10D220A608A69120277
:100EF000FCD40860704700000000074010B500F007
:100F00008BFA074A002010600648C7210162416938
:100F1000C907FCD101211160BDE81040FFF7CABD2F
:100F2000584900400030064038B52248224D009014
:100F30000823042200212846FFF70AFE59229407BD
:100F400016208821C4F80021C4F80001C4F800115B
:100F5000D4F80031002BF5D0A06D20F07060A065B2
:100F6000A06DA065012240211448FFF771FC00200C
:100F7000C4F800012846FFF7A2FD00F01FF9014662
:100F80000FA000F0ABFF0020114A124BFF211154BB
:100F90001954401C80B2FF28F9D90F4A0F4B00208A
:100FA0004FF4805411541954401C80B2A042F9D31C
:100FB00038BD0000400D03000030064040410040B5
:100FC0004944203A2030782532580D0A00000000AC
:100FD000480000204801002048020020481200205C
:100FE0002DE9F047994615460E460346002400F0C9
:100FF00013FADFF85C800021C8F80010154F0220BA
:101000003862C3F307403862C3F307203862D8B2AE
:101010003862B9F1000F08D02946304600F096F941
:1010200010E0305D00F07CF9641CAC42F9D37869C3
:10103000C007FCD14FF4FA71074800F075FA01219E
:10104000C8F800103846BDE8F047FFF733BD000090
:101050005849004000300640000005402DE9F047A7
:101060001F4F0D4600269946144601463E601D4816
:1010700003220262C1F307420262C1F30722026245
:10108000C9B201624169C907FCD18046FFF712FD70
:101090005FEA0900DFF850A04FF4FA7909D0214641
:1010A000284600F02FF849465046BDE8F04700F0CA
:1010B0003BBA0020414606E00E624A69D207FCD1E5
:1010C0000A6B2A54401CA042F6D34869C007FCD1E1
:1010D0004946504600F028FA01203860BDE8F08704
:1010E0005849004000300640000005400002FFF76C
:1010F000B5BF10B50002FFF773FFBDE8104000F068
:1011000083B900002DE9FC41274E0D4607464FF4F8
:10111000004421463046FFF7E7FB2B4600220F2113
:101120003046FFF715FC0025CDE900754FF44073FC
:101130001E4A0F213046FFF7FAFB00231B220F2126
:1011400030460095FFF716FC002304220F2130469D
:10115000FFF7E2FB56F8F00F40F080003060134DCF
:10116000303DE86840F00200E8601149104A08315B
:1011700010688307FCD50B681B040CD50C60E8686D
:1011800020F00200E8604FF4FA710A4800F0CCF950
:101190000120094904E0C007EAD00549091D086893
:1011A0000860BDE8FC81000000800040303006404F
:1011B0001C84004000000540584900401CB50E4BFF
:1011C000002018600D4990240C62086208620862D1
:1011D000086208624A69D207FCD101221A606A4695
:1011E00003E00B6B1354401CC0B24B69DB05F8D510
:1011F000BDF8040040BA1CBD58490040003006400C
:10120000074A002111600748052303620162416912
:10121000C907FCD101211160016B006BC0B270479E
:10122000584900400030064070B5044600F0F4F81C
:101230000B4D00202860202000F072F8C4F3074016
:1012400000F06EF8C4F3072000F06AF8E0B200F096
:1012500067F801202860BDE8704000F0D5B80000B4
:10126000584900402DE9F04705031F460E464FF44C
:101270008070140A16D0DFF83CA04FF4FA7980464B
:10128000641EA4B213D34946504600F04DF93B46C4
:10129000424631462846FFF7E1FE05F5807506F522
:1012A0008076EDE72846BDE8F047FFF7D7BEBDE8FA
:1012B000F0870000000005402DE9FF5F17460E464D
:1012C00005034FF48078140A02F0FF09FFF7ACFF22
:1012D000B4B1DFF848B04FF4FA7A4746641EE4B27E
:1012E00011D35146584600F01FF93A463146284678
:1012F000039BFFF775FE05F5807506F58076EDE733
:101300003A46039B01E0039B4A4631462846FFF7D5
:1013100067FEBDE8FF5F00F077B800000000054001
:1013200070B5094D044608212846FFF7CDFB00287B
:10133000F9D02C6202212846FFF7C6FB0028F9D11C
:10134000286BC0B270BD0000003006402DE9FC479C
:10135000284C0027884681462760274E25142946B9
:101360003046FFF7C1FA434600220E213046FFF710
:10137000EFFA4FF440612148CDE9000100234A46CD
:101380000E213046FFF7D3FA00231A220E213046F1
:101390000097FFF7EFFA002304220E213046FFF7F3
:1013A000BBFA56F8E00F40F080003060134B203B52
:1013B000D86840F00100D860114A11490832086825
:1013C0008607FCD5166876040DD51560D86820F020
:1013D0000100D8604FF4FA710A4800F0A5F8012026
:1013E0002060BDE8FC87C007E9D00549091D0868F1
:1013F0000860F6E758490040008000402030064071
:101400001C8400400000054000B5FFF7F9FE10F015
:10141000010FFAD100BD0000054A00201060054808
:10142000062101624169C907FCD1012010607047A3
:10143000584900400030064010B5FFF7F1F80E4A59
:101440004FF080439060D3F8101201F00701022999
:1014500003D002F10C0050F82100D3F8201201F063
:101460000F01491CB0FBF1F0044910600844490029
:10147000B0FBF1F0506010BD0000002020A107007B
:101480001A48016841F4700101601948C16C21F0EB
:101490000F0141F00801C1644FF08040D0F898126C
:1014A00041F48021C0F89812D0F8081241F00201EE
:1014B000C0F808120F49D1F8042102F0F732C1F840
:1014C0000421D1F8082102F0F732C1F80821D0F840
:1014D000081221F00201C0F808124FF04020D0F8A5
:1014E000401121F0F001C0F84011704788ED00E094
:1014F00000C000400010044010B50A4C4FF47A724E
:101500004FF00061204600F08DF8206840F0005058
:1015100020602120FFF7DCF9206840F08040206047
:1015200010BD00000001054070B50C46054600F0F6
:101530003DF81B49002209682A60B1FBF0F16A619D
:10154000184B491C984205D84FF47A76B44205D21C
:10155000344606E0642C01D2642402E09C4200D9A7
:101560001C46984208D8104BB3FBF0F04FF47A7346
:101570005C43B4FBF0F007E0B0FBF3F06043020E15
:1015800002D0531CB0FBF3F0686042F0804028604A
:1015900011B100BF491EFCD128688001FCD470BD88
:1015A0000000002040420F0000CA9A3B10B588B0EE
:1015B0000446202217496846FEF768FE164A174B74
:1015C0009003944204D1D0F81402C0F3022110E039
:1015D0009C4204D1D0F81402C0F3023109E0104952
:1015E000D0F814028C4202D1C0F3024101E0C0F3F2
:1015F0000251022903D05DF8210008B010BD9442C9
:1016000001D09C4202D1FEF7A5FFF6E7FEF7D4FF1A
:10161000F3E70000A02500000000054000010540A0
:101620000010054070B516460D460446FFF7BEFF94
:101630000023B6EB500F01D9022206E0B0FBF6F210
:10164000130E02D0591CB2FBF1F21D4325606260FB
:101650005B1C5A43B0FBF2F070BD00000848816883
:10166000C1F3000100290AD00121816005494888A1
:10167000421C4A80B0F57A7F01D90020488070472B
:10168000000105403000002010B50B4CE06910F45B
:10169000885F02D104E000F049F9A1694904FAD554
:1016A000A169204611F0710F05D0BDE810404FF43C
:1016B000105100F087B810BD0000074010B51E485B
:1016C000FFF700FC1D4C4FF4E131204600F098F884
:1016D0001421204600F020F9A06820F01000A0603E
:1016E000A06840F02000A060606840F61101084347
:1016F00060602420FFF7ECF8FEF706FF014610A01B
:1017000000F0ECFBFEF710FF014614A000F0E6FB32
:10171000FEF714FF014617A000F0E0FBFEF71AFFEA
:1017200001461AA000F0DAFBFEF746FF0146BDE8CD
:1017300010401DA000F0D2BB1000000400000740C4
:101740000D0A434C4B5F47657443505546726571B3
:10175000203A202538640D0A00000000434C4B5FFE
:1017600047657448585446726571203A202538649C
:101770000D0A0000434C4B5F4765744C5854467249
:101780006571203A202538640D0A0000434C4B5FF8
:1017900047657450434C4B3046726571203A2025A2
:1017A00038640D0A00000000434C4B5F47657450DD
:1017B000434C4B3146726571203A202538640D0A3E
:1017C000000000004A0503D5702282610822826170
:1017D0000A0503D5426942F0010242618A0401D53B
:1017E000064A82614A0401D51F224264090404D5D5
:1017F0008021C16140F20F31816370470100000117
:101800002DE9FF4104463C480F4600250FC88DE8EE
:101810000F003A492E464FF080408C4206D1D0F856
:101820001412D0F82002C1F301652AE034498C4239
:1018300006D1D0F81412D0F82002C1F381652BE054
:1018400030498C4208D1D0F81C12D0F83002C1F3D4
:10185000016500F00F0621E02B498C4208D1D0F839
:101860001C12D0F83002C1F38165C0F3031615E0F5
:1018700026498C4208D1D0F81C12D0F83002C1F3AE
:101880000175C0F3032609E021498C4206D1D0F846
:101890001C12D0F830028D0FC0F3033600202063F5
:1018A0000320E060A0681B490840A060E846012DC5
:1018B00002D1FEF7B5FE0190002F1AD058F825107E
:1018C000761CB1FBF6F000EB5700B0FBF7F0801E82
:1018D000B0F5803F0AD3B1FBF6F000EBC700B0FBD8
:1018E000F7F06FF0010101EB101001E040F0405003
:1018F0006062BDE8FF810000702500000000074025
:10190000001007400020074000300740004007401B
:10191000005007400FFFF0FF026A22F0FF020A4367
:101920000262416841F40061416070472DE9F0476F
:10193000AB4800273D4600683C46C0B27F2801D92D
:10194000A8A049E1DFF8B0A2AC4E4FF48058382887
:1019500071D00EDCA949AA4CA0F1310009784FF4EE
:101960008079072861D2DFE800F03C456267728821
:10197000C0005A280BD006DC39287BD03F2813D072
:10198000582852D103E0782801D07A284DD1BFF3EE
:101990004F8F9C4908689C4A00F4E060104308603F
:1019A000BFF34F8F00BFFDE798A000F097FA9FA00C
:1019B00000F094FAA1A000F091FAA6A000F08EFA2F
:1019C000A9A000F08BFAACA000F088FAAEA000F05D
:1019D00085FAB7A000F082FAC3A000F07FFAC7A092
:1019E000FAE0CEA000F07AFAFFF788FAFFF70CFDD4
:1019F000D2A0F1E07178D6A000F070FA44464146DA
:101A00007D4800F058FD707852463918D1557F1C3A
:101A1000BFB2A742F9D3D8A000F060FA21467648B9
:101A200000F0F2FC7078401C7070BDE8F087481C34
:101A30003070D5A094E08FE0DEA000F04FFA0123D3
:101A400042466D493078FFF737FCE0A0C4E0E5A0DE
:101A500000F044FA44464146E84800F02CFD0123DA
:101A60002246E6493078FFF7FDFB2146E34800F0C7
:101A7000CBFC00E078E0E2A0AEE0A8A000F02EFAF7
:101A8000FFF73CFAFFF7C0FCACA000F027FA4F4686
:101A90002946E1A000F022FA3946E74800F00BFDA4
:101AA0003946574800F007FD71780020421822544B
:101AB000401C80B2FF28F9D9491C717000233A46B6
:101AC0004F492846FFF715FB00233A46DA492846D6
:101AD000FFF70CFB3A46D849494800F051FC6D1C11
:101AE000ADB2102DD4D3D5A076E08CA000F0F6F9DD
:101AF000FFF704FAFFF788FC90A000F0EFF94F46DB
:101B00002946D4A000F0EAF93946CB4800F0D3FCCE
:101B100039463B4800F0CFFC71780020421822542F
:101B2000401C80B2FF28F9D9491C717001233A4644
:101B300033492846FFF7DDFA01233A46BE492846D5
:101B4000FFF7D4FA3A46BC492D4800F019FC6D1C49
:101B5000ADB2102DD4D33EE0FFF730FB0146C6A056
:101B6000BDE8F04700F0BAB96CA000F0B7F9FFF794
:101B7000C5F9FFF749FC71A000F0B0F9574645469A
:101B80002146C5A000F0AAF929469C4800F093FC24
:101B90002946194800F08FFC7178002042183A5409
:101BA000401C80B2A842F9D3491C717001232A4617
:101BB00011492046FFF780FB01232A468F49204622
:101BC000FFF750FB2A468D490B4800F0D9FB641CF7
:101BD000A4B2102CD4D3BAA0BDE8F04700F07EB96F
:101BE00000000740696E76616C696420636F6D6DFB
:101BF000616E640D0A0000004802002030000020E1
:101C0000480000200CED00E00400FA050D0A3D3DFF
:101C10003D3D3D3D3D3D3D3D3D3D3D3D3D3D3D3DF4
:101C20003D3D3D3D3D3D3D3D0D0A0000313A2063C7
:101C30006869702065726173650D0A00323A20662A
:101C4000696C6C20696E20545820646174610D0ABF
:101C500000000000333A207061676520636F756E85
:101C60007465720D0A000000343A205061676520E7
:101C700077726974650D0A00353A205061676520F6
:101C8000726561640D0A0000363A2073656C662047
:101C900074657374202C207772697465202C20720F
:101CA000656164202C20636F6D706172650D0A00A0
:101CB000373A2073656C662074657374202C207726
:101CC00072697465202C2072656164202C20636F1A
:101CD0006D7061726520202C2077697468205044F3
:101CE0004D410D0A00000000383A20726561642001
:101CF0004944202830783930290D0A003D3D3D3DCA
:101D00003D3D3D3D3D3D3D3D3D3D3D3D3D3D3D3D03
:101D10003D3D3D3D3D3D0D0A0D0A0000706572667A
:101D20006F726D20537069466C6173685F436869B8
:101D30007045726173650D0A000000006572617381
:101D4000652066696E6973680D0A0D0A000000005F
:101D5000696E637265617365207465737420646174
:101D600074612073746172742066726F6D203078B4
:101D70002532580D0A0000005478344B42756666CF
:101D80006572203A200D0A005350495F464C41537A
:101D9000485F706167655F636F756E74657220631D
:101DA000757272656E74203A2030782532580D0AAB
:101DB0000D0A000070726F6772616D6D696E672E3B
:101DC0002E2E282564290D0A0000000070726F670E
:101DD00072616D6D696E672066696E6973680D0A60
:101DE0000D0A0000726561642070616765202E2E07
:101DF0002E28253264290D0A000000004812002018
:101E00007265616420706167652066696E697368D8
:101E10000D0A0D0A000000000D0A53454C462054DF
:101E2000455354202E2E2E2028696478203A2025F0
:101E30003264290D0A0000004801002053454C4639
:101E400020544553542066696E6973680D0A0D0A63
:101E5000000000000D0A50444D412053454C4620DF
:101E600054455354202E2E2E2028696478203A2081
:101E7000253264290D0A0000537069466C6173684D
:101E80005F526561644D6964446964203A2030782A
:101E90002532580D0A0A00000D0A50444D412053C6
:101EA000454C4620544553542028344B29202E2E8F
:101EB0002E2028696478203A20253264290D0A00F2
:101EC00050444D412053454C4620544553542066C0
:101ED000696E6973680D0A0D0A0000000FB4054BA6
:101EE00010B503A9044A029800F018F810BC5DF878
:101EF00014FB0000952400002C00002002E008C81C
:101F0000121F08C1002AFAD170477047002001E073
:101F100001C1121F002AFBD1704700002DE9FF4FBD
:101F20008DB00F460546002606E025280BD0DDE9DA
:101F30000F1290476D1C761C28780028F5D111B03F
:101F40003046BDE8F08F0024A246A1460122EC49AC
:101F500000E0044315F8013F203B02FA03F0084279
:101F6000F7D128782A2810D06FF02F022878A0F116
:101F70003001092914D80AEB8A0102EB410144F02F
:101F8000020400EB010A6D1CF0E701CF5FEA000AD2
:101F900003D544F40054CAF1000A44F002046D1C55
:101FA00028782E2817D115F8010F44F004042A28A8
:101FB0000ED06FF02F022878A0F1300109290AD83D
:101FC00009EB890102EB410100EB01096D1CF2E70D
:101FD00057F8049B6D1C28786C280FD006DC4C2821
:101FE00017D068280DD06A2814D104E0742810D0C6
:101FF0007A280FD10DE044F400140AE044F4801470
:1020000001E044F440146978814202D104F580145F
:102010006D1C6D1C2A786E2A1FD00CDC632A31D00F
:1020200004DC002A8BD0582A11D1A3E0642A68D09E
:10203000692A0CD165E0732A2ED004DC6F2A73D094
:10204000702A04D19BE0752A6FD0782A6ED0104692
:10205000DDE90F129047761C50E1C4F302500228CC
:1020600006D0032809D0042801CF09D0066045E135
:1020700001CFF117C0E9006140E101CF06803DE1E9
:1020800006703BE117F8040B8DF8000000208DF876
:102090000100EB46012003E057F804BB4FF0FF308E
:1020A00061074FF0000102D40DE008F101018846FC
:1020B00049450FDA8045F8DB1BF808100029F4D1F8
:1020C00008E008F1010188468142FADB1BF808109C
:1020D0000029F6D1DDE90F23AAEB0800814621464D
:1020E00000F036F9304400EB080604E0DDE90F1299
:1020F0001BF8010B9047B8F10108F7D2214648467A
:10210000F7E00A21C4F302534FF0000B0891022BB1
:1021100004D001CFC117032B09D00AE0FF1D27F01F
:102120000707F7E8020108E032E01FE020E000B214
:10213000C117042B01D140B2C117031E71F1000376
:1021400007DA4FF0000CD0EB0C006CEB01012D23F3
:1021500002E0230504D52B238DF82430012303E06E
:10216000E30701D02023F7E7984658E00A2110E062
:1021700010210EE010204FF0000B08900CE0102111
:102180004FF0000B44F004044FF00809089103E0FD
:1021900008214FF0000B0891C4F30253022B04D026
:1021A00001CF0021032B06D006E0FF1D27F0070713
:1021B000F7E8020103E080B2042B00D1C0B24FF077
:1021C000000823072BD5702A07D0DDF820C08CF03B
:1021D000100C5CEA0B0C05D00EE040238DF8243087
:1021E000012308E050EA010306D030238DF82430A3
:1021F0008DF8252002239846DDF820C08CF0080CCD
:102200005CEA0B0C0BD150EA010301D1630706D540
:1022100030238DF824304FF00108A9F10109582A24
:1022200004D038A20B9208AA0A920BE03AA2F9E76E
:102230005B46089AFEF73CF80B9B9B5C0A9A521E81
:102240000A92137050EA0102F2D10A98ADEB000035
:1022500000F1200B600702D524F4803401E04FF038
:102260000109D94502DDA9EB0B0000E0002000EBDD
:102270000B0141440890AAEB010AE00306D4DDE912
:102280000F232146504600F063F806444FF0000942
:1022900008E009A911F80900DDE90F12904709F1DA
:1022A0000109761CC145F4DBE0030CD5DDE90F2301
:1022B0002146504600F04CF8064404E0DDE90F12D8
:1022C00030209047761C0899481E08900029F5DCBC
:1022D00008E00A980A990078491C0A91DDE90F1272
:1022E0009047761CBBF10001ABF1010BF1DC2146FC
:1022F0005046DDE90F2300F019F806446D1C1BE67B
:1023000009280100303132333435363738396162CB
:10231000636465660000000030313233343536378F
:102320003839414243444546000000002DE9F04160
:10233000044600251E461746880404D405E03946A5
:102340002020B0476D1C641EF9D52846BDE8F081F9
:102350002DE9F041044600251E469046C80301D5EC
:10236000302700E02027880404D505E041463846A0
:10237000B0476D1C641EF9D52846BDE8F081000009
:102380002DE9F04116460F46804600240F4D0EE021
:1023900018F804203B5D9A4207D021460CA0FFF7B5
:1023A0009DFD686840F002006860641CA4B2B442FD
:1023B000EEDB6868800707D40E490FA0FFF78EFD9B
:1023C000686820F002006860BDE8F08130000020FD
:1023D0006572726F7220696478203A202534642017
:1023E0003A203078253258202C2030782532580D6C
:1023F0000A000000C025000025732066696E69731D
:1024000068200D0A000000002DE9F0410E46074645
:10241000002525E0294616A0FFF760FD00242819B5
:10242000395C16A0FFF75AFD641C102CF7DB15A0D1
:10243000FFF754FD00242819395CA1F120005F2822
:1024400003D211A0FFF74AFD02E010A0FFF746FDFE
:10245000641C761E102CEEDB0DA01035FFF73EFD40
:10246000002ED7DCBDE8F04109A0FFF737BD000022
:1024700030782530345820200000000025303258B4
:102480002000000020200000256300002E00000036
:102490000A00000010B50446FEF720FD204610BDDE
:1024A000FEF750FCFFF70AF9FEF7B6F9FFF724F83C
:1024B000FEF73AFDFEE70022134602E08354521C69
:1024C00092B28A42FADB704710B50446016810A048
:1024D000FFF704FD11A06168FFF700FD12A0A168DD
:1024E000FFF7FCFC13A0E168FFF7F8FC14A02169DA
:1024F000FFF7F4FC15A06169FFF7F0FC16A0A169D5
:10250000FFF7ECFCE169BDE8104016A0FFF7E6BC60
:10251000723020203D20307825780A00723120204A
:102520003D20307825780A00723220203D20307816
:1025300025780A00723320203D20307825780A0063
:10254000723132203D20307825780A006C722020CC
:102550003D20307825780A00706320203D203078B7
:1025600025780A00707372203D20307825780A00A3
:10257000001BB7000000000000800000001BB70037
:10258000001BB7000000000000800000001BB70027
:10259000001BB7000000000000800000001BB70017
:1025A000001BB700008000000000000000000000D9
:1025B000000000001027000000000000001BB70012
:1025C000636F6D706172655F62756666657200004B
:1025D000F02500000000002038000000FC1E000074
:1025E0002826000038000020102A00000C1F0000E0
:1025F000001BB7000C000000001BB700001BB70059
:102600000080000000000000102700000000000013
:102610000000000000000000001BB70000000000E8
:082620000000000000000000B2
:0400000500000225D0
:00000001FF
